:020000040800F2
:100000000000022079270008510900085309000860
:1000100055090008570900085909000800000000A8
:100020000000000000000000000000005B09000864
:100030005D090008000000005F0900086109000870
:10004000C9270008C9270008C9270008C9270008D0
:10005000C9270008C9270008C9270008C9270008C0
:10006000C9270008C9270008C9270008C9270008B0
:10007000C9270008C9270008C9270008C9270008A0
:10008000C9270008C9270008C9270008C927000890
:10009000C9270008C9270008C9270008C927000880
:1000A000C9270008C9270008C9270008C927000870
:1000B000C9270008C9270008C9270008C927000860
:1000C000C9270008C9270008C9270008C927000850
:1000D000C9270008C9270008C927000869090008BE
:1000E000C9270008C9270008C9270008C927000830
:1000F000C9270008C9270008C9270008C927000820
:10010000C9270008C9270008C9270008C92700080F
:10011000C9270008C9270008C9270008C9270008FF
:10012000C9270008C9270008C9270008C9270008EF
:10013000C9270008C9270008C9270008C9270008DF
:10014000C9270008C9270008C9270008790900083D
:10015000C9270008C9270008C9270008C9270008BF
:10016000C9270008C9270008C9270008C9270008AF
:10017000C9270008C9270008C92700080000000097
:08018000C9270008C927000887
:1001880010B5054C237833B9044B13B10448AFF3C9
:1001980000800123237010BD7C03002000000000B4
:1001A8002428000808B5034B1BB103490348AFF3E3
:1001B800008008BD000000008003002024280008FB
:1001C80053B94AB9002908BF00281CBF4FF0FF31B6
:1001D8004FF0FF3000F072B9ADF1080C6DE904CEB4
:1001E80000F006F8DDF804E0DDE9022304B070470A
:1001F8002DE9F047089E04468846002B4BD18A42D9
:10020800154667D9B2FA82F24AB1C2F1200701FA5B
:1002180002F320FA07F7954047EA030894404FEAAB
:10022800154E230CB8FBFEF71FFA85FC0EFB17884A
:1002380043EA084307FB0CF1994209D9EB1807F187
:10024800FF3080F01B81994240F21881023F2B4415
:100258005B1AA4B2B3FBFEF00EFB103344EA03446E
:1002680000FB0CFCA44509D92C1900F1FF3380F0E0
:100278000781A44540F2048102382C4440EA074033
:10028800A4EB0C0400271EB1D4400023C6E90043A8
:100298003946BDE8F0878B4209D9002E00F0EB8083
:1002A8000027C6E9000138463946BDE8F087B3FAA9
:1002B80083F7002F47D18B4202D3824200F2FA80A3
:1002C800841A61EB030301209846002EE0D0C6E9AA
:1002D8000048DDE702B9FFDEB2FA82F2002A40F0F8
:1002E8008F80491B4FEA154E1FFA85F80127B1FB8D
:1002F800FEFC230C0EFB1C1143EA014308FB0CF126
:10030800994207D9EB180CF1FF3002D2994200F25A
:10031800CD808446591AA3B2B1FBFEF00EFB10142F
:1003280043EA044408FB00F8A04507D92C1900F15A
:10033800FF3302D2A04500F2B6801846A4EB0804A9
:1003480040EA0C409FE7C7F1200CBB4022FA0CFEA4
:100358004EEA030E01FA07F420FA0CF521FA0CF321
:100368004FEA1E482543B3FBF8F92C0C08FB193358
:100378001FFA8EFA44EA034309FB0AF49C4202FA84
:1003880007F200FA07F10BD91EEB030309F1FF305E
:1003980080F087809C4240F28480A9F1020973446E
:1003A8001B1BADB2B3FBF8F008FB103345EA03445E
:1003B80000FB0AFAA24508D91EEB040400F1FF333A
:1003C8006BD2A24569D90238744440EA0940A0FBBF
:1003D8000289A4EB0A044C45C2464B4654D351D07B
:1003E800002E69D0B1EB0A0564EB030404FA0CFC97
:1003F800FD40FC404CEA0505C6E90054002747E7E4
:10040800C2F1200320FA03F7954001FA02F021FA1D
:1004180003F34FEA154E3843010CB3FBFEF71FFAFE
:1004280085F80EFB173341EA034107FB08F38B42BB
:1004380004FA02F407D9691807F1FF3C2FD28B425E
:100448002DD9023F2944CB1A81B2B3FBFEF00EFB33
:10045800103341EA034100FB08F38B4207D96918BE
:1004680000F1FF3C17D28B4215D902382944C91A2A
:1004780040EA07473BE73746304609E70746E7E6DD
:100488001846FBE64145ABD2B8EB020A69EB0E020F
:1004980001381346A4E76046E9E7184695E767463A
:1004A800D1E781467CE702382C4447E7ACF1020CDF
:1004B8002B442FE7384608E73746E9E6704700BF80
:1004C800002300E00133C25C002AFBD118467047C4
:1004D80038B50546002303E00E4A0021D154013304
:1004E8000C4AD2F800249A42F6DC0A4B0022C3F8E0
:1004F80000242846FFF7E4FF074CC82382B22946A8
:10050800204601F009FE642302220449204601F036
:1005180003FE38BD980300209C07002054280008DB
:100528002DE9F04F8DB000240794089409940A949B
:100538000B940194524B1A6B42F010021A631A6B17
:1005480002F010020192019A02941A6B42F004021E
:100558001A631A6B02F004020292029A03941A6B4D
:1005680042F080021A631A6B02F080020392039A27
:1005780004941A6B42F001021A631A6B02F001022A
:100588000492049A05941A6B42F002021A631A6BD9
:1005980002F002020592059A06941A6B42F00802CC
:1005A8001A631B6B03F008030693069BDFF8DC90C5
:1005B80022460821484600F0D3FBDFF8D480012208
:1005C8001146404600F0CCFB2E4F22464FF2100158
:1005D800384600F0C5FB01250795089509940A944B
:1005E80007A9404600F0D8FA082307930226089680
:1005F80009940A944FF0050ACDF82CA007A94046A3
:1006080000F0CAFA0795DFF88C80CDF820800994AD
:1006180007A91D4800F0C0FA042307930894099419
:10062800DFF874B007A9584600F0B6FA4FF48063B3
:100638000793089609940A94CDF82CA007A9584660
:1006480000F0AAFA4FF210030793089509940A9448
:1006580007A9384600F0A0FA2023079308940994C4
:1006680007A9384600F098FA0796CDF82080099433
:1006780007A9484600F090FA0DB0BDE8F08F00BF1A
:1006880000380240000C0240000002400010024006
:1006980000080240000012100004024008B5084893
:1006A800084B03604FF4E133436000238360C36069
:1006B80003610C2242618361C36101F0FEFC08BD45
:1006C800100800200044004008B50848084B0360A3
:1006D8004FF4E133436000238360C36003610C225D
:1006E80042618361C36101F0E8FC08BD9C070020FA
:1006F8000048004070B598B0302200210DEB020090
:1007080002F084F800240794089409940A940B943E
:1007180003940494059406940194204B1A6C42F0B7
:1007280080521A641B6C03F080530193019B02945E
:100738001B4B1A6842F480421A601B6803F480431A
:100748000293029B01260C964FF480330D930225E9
:1007580012954FF480031393082314934FF4A8734E
:1007680015931695072317930CA800F045FF0F2340
:100778000793089509944FF4A0530A934FF48053B4
:100788000B93052107A801F099F90396C023049358
:10079800059503A801F068FA18B070BD003802404A
:1007A8000070004008B500F039F9FFF7A3FFFFF724
:1007B800B7FEFFF773FFFFF787FF01220B490C48CD
:1007C80001F01BFD0B48FFF783FE0B48FFF780FE87
:1007D8000A48FFF77DFE4FF48051094800F0C6FA39
:1007E8004FF4FA7000F046F9F5E700BF0E08002054
:1007F8009C070020B00200201003002030010020D8
:10080800000C024000B583B0002100910C4B5A6CDB
:1008180042F480425A645A6C02F480420092009A70
:1008280001911A6C42F080521A641B6C03F08053D9
:100838000193019B072000F031F903B05DF804FB38
:1008480000380240F0B58BB0002305930693079358
:10085800089309930368364A934204D0354A934271
:1008680024D00BB0F0BD00210091334B1A6C42F438
:1008780000321A641A6C02F400320092009A019154
:100888001A6B42F001021A631B6B03F00103019318
:10089800019B0C2305930223069303230893072344
:1008A800099305A9254800F077F9DAE700240294AE
:1008B800214B1A6C42F480221A641A6C02F48022CA
:1008C8000292029A03941A6B42F002021A631A6B9C
:1008D80002F002020392039A04941A6B42F008028F
:1008E8001A631B6B03F008030493049B4FF4006323
:1008F800059302270697032608960725099505A953
:100908000F4800F049F94FF4807305930697079450
:100918000896099505A90B4800F03EF9224621469C
:10092800272000F0CDF8272000F0FEF899E700BF57
:1009380000440040004800400038024000000240E7
:1009480000040240000C02407047FEE7FEE7FEE7A5
:10095800FEE770477047704708B500F079F808BDA2
:1009680008B5024801F0D4FC08BD00BF9C07002070
:1009780008B5024800F08AFD08BD00BF54080020F1
:1009880008B50268084B9A4200D008BD074AD2F859
:10099800003407490878D0540133C2F800340122E2
:1009A800044801F02AFCF0E70048004098030020C2
:1009B8000E0800209C070020054BD3F8882042F43D
:1009C8007002C3F888204FF000629A60704700BF39
:1009D80000ED00E010B504460E4B18784FF47A731A
:1009E800B3FBF0F30C4A1068B0FBF3F000F0AAF880
:1009F80068B90F2C01D901200AE0002221464FF0E6
:100A0800FF3000F05DF8034B5C60002000E001203F
:100A180010BD00BF740300207003002008B50B4B05
:100A28001A6842F400721A601A6842F480621A6006
:100A38001A6842F480721A60032000F02FF8002030
:100A4800FFF7C8FFFFF7DEFE002008BD003C0240AC
:100A5800034A1168034B1B780B441360704700BFAF
:100A68005008002074030020014B1868704700BF2D
:100A78005008002038B50446FFF7F6FF0546B4F1E4
:100A8800FF3F02D0044B1B781C44FFF7EDFF401BCF
:100A9800A042FAD338BD00BF74030020074AD368C8
:100AA80023F4E0631B041B0C000200F4E06018430D
:100AB80040F0BF6040F40030D060704700ED00E0C7
:100AC80030B4174BDB68C3F30223C3F10704042CCB
:100AD80028BF04241D1D062D18D9033B4FF0FF35F0
:100AE80005FA04F421EA0401994005FA03F322EA1D
:100AF8000303194300280BDB0901C9B200F1604068
:100B080000F5614080F8001330BC70470023E5E72A
:100B180000F00F000901C9B2024B1954F4E700BFF5
:100B280000ED00E014ED00E0002807DB00F01F02F4
:100B3800400901239340024A42F82030704700BF21
:100B480000E100E00138B0F1807F0AD2064B58601E
:100B5800064AF02182F823100020986007221A60C4
:100B680070470120704700BF10E000E000ED00E092
:100B780090F83530DBB2022B03D080234365012087
:100B88007047052380F835300268136823F00103A5
:100B9800136000207047000000230F2B00F2D7805D
:100BA800F0B583B039E0072200E00022AA403A43BA
:100BB8000234674D45F82420664A1468F24302EA75
:100BC80004054F6817F4803F01D046EA0405614CDC
:100BD8002560646802EA04054F6817F4003F01D0F5
:100BE80046EA04055B4C6560A46802EA04054F68A0
:100BF80017F4801F01D046EA0405564CA560E46846
:100C080022404D6815F4001F01D046EA0402514CF9
:100C1800E26001330F2B00F2988001229A400C68A1
:100C280004EA0206B242F4D14C68651E012D03D9CC
:100C3800112C01D0122C12D185685F000324BC400E
:100C480025EA0405CC68BC402C438460456825EA45
:100C580002054C68C4F300129A402A434260C468F3
:100C68005F000322BA40D24314408D68BD4025433B
:100C7800C5604C68022C01D0122C13D1DD08083550
:100C880050F825E003F007044FEA840C0F2404FA17
:100C98000CF42EEA040E0C6904FA0CF444EA0E046F
:100CA80040F82540046822404C6804F00304BC4026
:100CB800224302604A6812F0805FAAD000220192A3
:100CC800254A546C44F480445464526C02F48042C3
:100CD8000192019A9C08A51C1D4A52F8257003F040
:100CE800030295000F22AA4027EA02071B4A9042F6
:100CF8003FF45BAF02F5806290421AD002F5806241
:100D0800904218D002F58062904216D002F58062B7
:100D1800904214D002F58062904212D002F58062AF
:100D2800904210D002F5806290423FF43CAF082216
:100D38003CE701223AE7022238E7032236E7042299
:100D480034E7052232E7062230E703B0F0BD7047EA
:100D580000380140003C01400038024000000240D9
:100D680012B909048161704781617047436931EAAA
:100D7800030301D081617047090481617047000055
:100D8800F8B50668346A04F00F07C4F34343C4F3A4
:100D98000A14022B2ED16CB307EB8702D30003444D
:100DA800596C39B305462246304601F07FFBBA003C
:100DB8003A44D3002B445A6C22445A64DA6C2244D5
:100DC800DA6406EB4713D3F810150B4A0A408AB1C8
:100DD800D3F8002522F0804242F00042C3F80025F3
:100DE800BB00D919CA002A4492F8503083F0010395
:100DF80082F85030F8BD00BF0000F81F30B583B04E
:100E080005460468D4F840340193D4F8403400937C
:100E1800009B23F02E030093019B13F0020F07D0D1
:100E2800019B13F0010F25D1009B43F002030093AF
:100E3800019B13F0080F10D0009B43F008030093A8
:100E4800019B13F0040F2DD0AB69022B15D0EB6872
:100E5800012B22D0284601F06DFC019B13F0200FD6
:100E680003D0009B43F020030093009BC4F8403458
:100E780003B030BD01F051FCD6E7019B03F4C02359
:100E8800B3F5802F04D00121286801F02BFBE1E79E
:100E98000221286801F026FBDCE74EF66022C4F840
:100EA8000424D7E7284601F04BFCD6E7F8B50646F8
:100EB8000D46076807EB411707F5A064A36813F010
:100EC800040F40D00423A360E36843F00203E36007
:100ED800A36813F4007F40F08280A36813F0010F29
:100EE80000F0B08033694BB1AA002A44D3003344E0
:100EF8009A6C2169C1F31201521ADA64AA002A44D1
:100F0800D3003344012283F85D2000219965A26053
:100F180093F83F30002B6ED0022B6CD0032B7FD080
:100F2800012B72D1AA002A44D3003344012283F84A
:100F38005C2093F85010514083F8501029463046F1
:100F480001F0F7FB61E0A36813F4807F06D1A36882
:100F580013F0200F14D02023A360B9E74FF4807357
:100F6800A36001EB8102D3000344072283F85D20CC
:100F7800E36843F00203E360006801F0D8FAA7E7EA
:100F8800A36813F0080F17D1A36813F4806F9FD0DC
:100F9800E36843F00203E360006801F0C8FA102335
:100FA800A36005EB8502D3003344082283F85D2053
:100FB8004FF48063A3608BE7E36843F00203E360C8
:100FC80001EB8102D3000344052283F85D2010233E
:100FD800A3600823A360006801F0A9FA78E7E36832
:100FE80043F00203E3602946306801F0A0FA4FF4A9
:100FF8000073A36013E0E36843F00203E36029464B
:10100800306801F094FA1023A360AB005919CA00A4
:10101800324492F8503083F0010382F85030F8BD22
:10102800D7F8003543F00053C7F8003505EB8502C3
:10103800D3003344012283F85C202946304601F06E
:1010480078FBE2E7A36813F0020F6FD0E36823F0A0
:101058000203E36005EB8502D300334493F85D3067
:10106800012B14D0052B26D0062B2CD0082B2AD0E8
:10107800032B4BD0072B11D1AA002A44D3003344A9
:101088009A6D01329A65042283F85C2006E005EB2C
:101098008502D3003344012283F85C200223A36035
:1010A80005EB8502D300334493F85C20294630468B
:1010B80001F03FFBB3E705EB8502D300334405227B
:1010C80083F85C20EAE7AA002A44D30033449A6DE7
:1010D80001329A65032A11D9AA002A44D30033445D
:1010E80000229A65042283F85C20D7F8003523F0A3
:1010F800804343F00043C7F80035CFE705EB85028E
:10110800D3003344022283F85C20EEE705EB850226
:10111800D3003344022283F85C20D7F8003523F04B
:10112800804343F00043C7F80035B7E7A36813F0DE
:10113800800F1AD1A36813F0100F3FF470AF05EBBE
:101148008502D300334493F83F30032B25D00BB1ED
:10115800022B07D105EB8502D300334400229A65A0
:1011680033694BB31023A36059E7E36843F00203E4
:10117800E360AB005919CA003244916D01319165A1
:101188002B44DA003244062382F85D302946306861
:1011980001F0CDF98023A36041E705EB8502D30078
:1011A800334400229A65E36843F00203E36029466A
:1011B800306801F0BCF9D5E705EB8502D30033446C
:1011C800032283F85D20E36843F00203E3602946C5
:1011D800306801F0ACF9C5E7F8B5036803EB4113D3
:1011E80003F5A064A26812F0040F24D10E46054648
:1011F800A26812F0200F25D02023A36001EB810202
:10120800D3001A46034493F83D30012B19D18B00C3
:101218000244002182F83D103344DA0002440223DC
:1012280082F85C30E36843F00203E360314600680B
:1012380001F07DF905E00423A360E36843F00203AD
:10124800E360F8BDA26812F0400F34D1A26812F42E
:10125800007F4AD1A26812F0010F51D1A26812F0A2
:10126800080F62D1A26812F0100F6FD08A000A44EA
:10127800D300034400229A65032283F85D2093F883
:101288003D306BB901EB8102D300034493F83C3045
:1012980033B901EB8102D3000344012283F83D20D6
:1012A800E36843F00203E3603146286801F03FF940
:1012B8001023A360C5E78B005918CA000244042113
:1012C80082F85D10012182F83D103344DA000244AF
:1012D80000239365E36843F00203E3603146006846
:1012E80001F025F94023A360ABE7E36843F002036C
:1012F800E360006801F01BF94FF40073A360A0E7F6
:101308008F007A18D300034400229A65E36843F0FB
:101318000203E360006801F00AF90123A360B91928
:10132800C800284480F85D308BE70823A360E36891
:1013380043F00203E360006801F0F9F806EB860168
:10134800C8002844052380F85D307AE7A26812F0C7
:10135800800F39D1A26812F4806F46D1A26812F0CA
:10136800020F3FF46EAFE26822F00202E26001EB86
:101378008101CA001146024492F85D20012A48D032
:10138800032A5AD0042A6CD0052A72D0062A01D022
:10139800082A59D1B1003144CA002A44916D01315B
:1013A800916503296BD9282202FB06520021916519
:1013B800042182F85C10D3F8002522F0804242F024
:1013C8000042C3F800253FE0E36843F00203E3600E
:1013D800006801F0ACF806EB8601CB002B4406222E
:1013E80083F85D208023A3602BE7E36843F00203C2
:1013F800E360006801F09BF81023A3604FF480635A
:10140800A36006EB8601CB002B44082283F85D20FD
:1014180017E70B460344012283F85C2093F83F301A
:10142800023BDBB293420FD80B46034493F851209A
:1014380082F0010283F8512006E006EB8602D30011
:101448000344022283F85C200223A36006EB860291
:10145800D3002B4493F85C203146284601F069F903
:10146800EFE606EB8602D3000344022283F85C20F1
:10147800EAE7282303FB060383F85C20E4E7282235
:1014880002FB0652022182F85C1094E7F8B5044684
:101498000568284601F022F8012800D0F8BD206828
:1014A80001F018F80028F9D0206801F013F810F4BA
:1014B800001F03D023684FF400125A61206801F01E
:1014C80009F810F4801F03D023684FF480125A6182
:1014D800206800F0FFFF10F0806F03D023684FF002
:1014E80080625A61206800F0F5FF10F0020F02D008
:1014F800236802225A61206800F0ECFF10F0005FB8
:1015080008D023684FF000525A61D5F8403413F0E0
:10151800010F25D0206800F0DDFF10F0807F27D173
:10152800206800F0D7FF10F0080F25D1206800F0E0
:10153800D1FF10F0007F26D1206800F0CBFF10F01B
:10154800100FABD02268936923F0100393612046F3
:10155800FFF716FC2268936943F0100393619DE737
:10156800204601F0E0F80121206800F0BBFFD1E738
:101578002046FFF743FCD3E7204601F0C8F823686C
:1015880008225A61D2E7206800F0CCFF07460026FF
:1015980004E0F1B22046FFF71FFE0136A368B3420C
:1015A80012D906F00F0327FA03F313F0010FF4D052
:1015B80005EB4613D3F8003513F4004FE9D0F1B228
:1015C8002046FFF773FCE8E723684FF000725A6182
:1015D800B2E790F8B832012B0BD010B504460123BE
:1015E80080F8B832006801F00AF8002084F8B802E0
:1015F80010BD022070470000002800F0E48170B59B
:1016080082B00446036813F0010F3BD0A74B9B68D8
:1016180003F00C03042B2CD0A44B9B6803F00C03A1
:10162800082B21D06368B3F5803F4FD0B3F5A02FC6
:1016380052D09E4B1A6822F480321A601A6822F43B
:1016480080221A606368002B50D0FFF70DFA054618
:10165800964B1B6813F4003F14D1FFF705FA401BA3
:101668006428F5D90320B3E1904B5B6813F4800F2D
:10167800D8D08E4B1B6813F4003F03D06368002B4F
:1016880000F0A381236813F0020F55D0874B9B68A5
:1016980013F00C0F3ED0854B9B6803F00C03082B0E
:1016A80033D0E368002B68D0814B01221A60FFF722
:1016B800DBF905467D4B1B6813F0020F54D1FFF789
:1016C800D3F9401B0228F5D9032081E1774A136832
:1016D80043F480331360B5E7744B1A6842F48022F0
:1016E8001A601A6842F480321A60ABE7FFF7BCF957
:1016F80005466E4B1B6813F4003FC3D0FFF7B4F9DF
:10170800401B6428F5D9032062E1684B5B6813F439
:10171800800FC6D1654B1B6813F0020F04D0E36835
:10172800012B01D0012053E1604A136823F0F8032C
:10173800216943EAC1031360236813F0080F40D0FE
:10174800636963B35B4B01221A60FFF78DF90546A5
:10175800564B5B6F13F0020F33D1FFF785F9401B2F
:101768000228F5D9032033E1504A136823F0F8031F
:10177800216943EAC1031360DEE74D4B00221A607A
:10178800FFF772F90546494B1B6813F0020FD3D0D7
:10179800FFF76AF9401B0228F5D9032018E1454BE9
:1017A80000221A60FFF760F90546404B5B6F13F0A3
:1017B800020F06D0FFF758F9401B0228F5D903207D
:1017C80006E1236813F0040F79D0384B1B6C13F033
:1017D800805F33D100230193344B1A6C42F080525E
:1017E8001A641B6C03F080530193019B0125324B53
:1017F8001B6813F4807F23D0A368012B34D0052BFA
:1018080038D02A4B1A6F22F001021A671A6F22F099
:1018180004021A67A368002B36D0FFF725F906469D
:10182800224B1B6F13F0020F48D1FFF71DF9801BE5
:1018380041F288339842F3D90320C9E00025D6E75E
:101848001D4A136843F480731360FFF70DF90646C9
:10185800194B1B6813F4807FCED1FFF705F9801B65
:101868000228F5D90320B3E0104A136F43F00103AF
:101878001367CFE70D4B1A6F42F004021A671A6F0D
:1018880042F001021A67C5E7FFF7EEF80646074B74
:101898001B6F13F0020F11D0FFF7E6F8801B41F21F
:1018A80088339842F3D9032092E000BF0038024001
:1018B80000004742800E474200700040EDB9A3691E
:1018C800002B00F08480454A926802F00C02082A36
:1018D80051D0022B17D0424B00221A60FFF7C4F8F0
:1018E80004463E4B1B6813F0007F42D0FFF7BCF85C
:1018F800001B0228F5D903206AE0384A136C23F04C
:1019080080531364DBE7364B00221A60FFF7ACF80C
:101918000546324B1B6813F0007F06D0FFF7A4F88A
:10192800401B0228F5D9032052E0E369226A1343D9
:10193800626A43EA8213A26A5208013A43EA0243FE
:10194800E26A43EA0263254A5360254B01221A6082
:10195800FFF78AF80446214B1B6813F0007F06D175
:10196800FFF782F8001B0228F5D9032030E0002099
:101978002EE000202CE0012B2CD0184B5B6803F4E0
:101988008001E269914201D0012021E003F03F0289
:10199800216A8A4201D001201AE0616A47F6C072C2
:1019A8001A408A4201D0012012E003F44032A16AB1
:1019B8008A4201D001200BE003F07063E26A93428F
:1019C8000AD0012004E001207047012000E0002037
:1019D80002B070BD0120FBE70020F9E700380240A3
:1019E80060004742324B9B6803F00C03042B5CD029
:1019F800082B01D02F4870472DE9F04B2C4B5A6823
:101A080002F03F025B6813F4800F2BD0284B5B6811
:101A1800C3F388131E4600275C010025E41A65EB12
:101A28000705A90141EA9461A001001B61EB0501CA
:101A3800CB0043EA5073C400A01943EB07014B02E3
:101A480043EAD0534402204619460023FEF7B8FB68
:101A5800174B5B68C3F3014301335B00B0FBF3F042
:101A6800BDE8F08B124B5B68C3F388131E46002752
:101A78005C010025E41A65EB0705A90141EA9461B8
:101A8800A001001B61EB0501CB0043EA5073C400C1
:101A9800A01943EB07018B0243EA905384022046C6
:101AA80019460023FEF78CFBD2E70348704700BFB6
:101AB800003802400024F40000127A00002800F0E8
:101AC8009E8070B50446504B1B6803F00F038B4291
:101AD80009D2CBB24C4A1370136803F00F038B4240
:101AE80001D0012070BD236813F0020F17D013F046
:101AF800040F04D0454A936843F4E0539360236885
:101B080013F0080F04D0414A936843F4604393608C
:101B18003E4A936823F0F003A068034393600D46A0
:101B2800236813F0010F32D06368012B21D09A1E6D
:101B3800012A25D9354A126812F0020F61D03349BB
:101B48008A6822F0030213438B60FEF78DFF064676
:101B58002E4B9B6803F00C036268B3EB820F16D020
:101B6800FEF782FF801B41F288339842F0D90320A8
:101B7800B8E7264A126812F4003FE0D10120B1E725
:101B8800224A126812F0007FD9D10120AAE71E4B21
:101B98001B6803F00F03AB4209D9EAB21A4B1A705B
:101BA8001B6803F00F03AB4201D001209AE72368BA
:101BB80013F0040F06D0154A936823F4E053E16844
:101BC8000B439360236813F0080F07D00F4A9368FC
:101BD80023F46043216943EAC1039360FFF702FFDE
:101BE8000A4B9B68C3F30313094AD35CD840094BDB
:101BF8001860094B1868FEF7EDFE002072E7012017
:101C0800704701206EE700BF003C024000380240E8
:101C18003C2800087003002078030020014B186856
:101C2800704700BF7003002008B5FFF7F7FF044BAB
:101C38009B68C3F38223034AD35CD84008BD00BF26
:101C4800003802404C28000808B5FFF7E7FF044BAE
:101C58009B68C3F34233034AD35CD84008BD00BF36
:101C6800003802404C28000830B583B004460368A9
:101C780013F0050F06D1236813F0020F2ED10020B0
:101C880003B030BD494B00221A60FEF7EDFE054651
:101C9800474B1B6813F0006F06D0FEF7E5FE401BAC
:101CA8000228F5D90320EBE76268A3681B0743EA1B
:101CB80082133F4AC2F884303C4B01221A60FEF777
:101CC800D3FE05463A4B1B6813F0006FD3D1FEF7DD
:101CD800CBFE401B0228F5D90320D1E7002301934E
:101CE800334B1A6C42F080521A641B6C03F0805319
:101CF8000193019B2F4A136843F480731360FEF726
:101D0800B3FE05462B4B1B6813F4807F06D1FEF704
:101D1800ABFE401B0228F5D90320B1E7244B1B6F0B
:101D280013F4407312D0E26802F440729A420DD064
:101D38001F4B1A6F22F440721F49012008600020CF
:101D480008601A671B6F13F0010F13D1E36803F4DF
:101D58004072B2F5407F1ED0154A936823F4F813F9
:101D6800936013490B6FE268C2F30B0213430B67CE
:101D7800002085E7FEF778FE05460D4B1B6F13F034
:101D8800020FE3D1FEF770FE401B41F28833984200
:101D9800F3D9032074E706498A6822F4F81223F07D
:101DA800704323F4407313438B60DAE768004742BB
:101DB8000038024000700040400E47420268D36875
:101DC80023F49073D3600268536923F001035361CD
:101DD800202380F83A30704790F83930DBB2212B55
:101DE8002AD18368B3F5805F16D0036A5A1C026251
:101DF8001A7803685A60C38C013B9BB2C384EBB961
:101E08000268D36823F08003D3600268D36843F084
:101E18004003D36000207047036A1B880268C3F33D
:101E28000803536003691BB9036A02330362E2E7DC
:101E3800036A01330362DEE702207047002070471F
:101E48002DE9F04B04460268136923F44053C16836
:101E58000B43136183680269134342691343C269E0
:101E68001A430168CB6823F4164323F00C03134389
:101E7800CB600268536923F4407381690B43536153
:101E8800C369B3F5004F3BD00368714A934200F031
:101E9800AB8002F58062934200F0A680FFF7C4FE93
:101EA8004FF00009061849EB090716EB000B47EB42
:101EB800090C4FEACC0343EA5B734FEACB02934623
:101EC8009C4663689A009B0F10EB0B0049EB0C01D2
:101ED800FEF776F95F4DA5FB00325109642202FB3B
:101EE800110213013233A5FB03235B0903F0F0024F
:101EF80002EB011203F00F03216813448B60A4E086
:101F08000368534A934239D002F58062934235D030
:101F1800FFF78AFE83464FF0000C06184CEB0C07BF
:101F280016EB000847EB0C094FEAC90343EA58735C
:101F38004FEAC8029046994662680021921841EB20
:101F480001031BEB08004CEB0901FEF739F9414D81
:101F5800A5FB00325109642202FB1102D30032337F
:101F6800A5FB03235B095A0002F4F87202EB011285
:101F780003F00703216813448B6066E0FFF764FEF3
:101F880080464FF00009061849EB090716EB000BCD
:101F980047EB090C4FEACC0343EA5B734FEACB02E9
:101FA80093469C4662680021921841EB010318EBA6
:101FB8000B0049EB0C01FEF703F9264DA5FB003297
:101FC8005109642202FB1102D3003233A5FB03231B
:101FD8005B095A0002F4F87202EB011203F00703DE
:101FE800216813448B6030E0FFF72EFE4FF00009A4
:101FF800061849EB090716EB000B47EB090C4FEAEB
:10200800CC0343EA5B734FEACB0293469C46636872
:102018009A009B0F10EB0B0049EB0C01FEF7D0F870
:102028000C4DA5FB00325109642202FB1102130179
:102038003233A5FB03235B0903F0F00202EB011224
:1020480003F00F03216813448B60BDE8F08B00BFD9
:10205800001001401F85EB512DE9F04105460F4660
:1020680016469846069C2B681B6837EA03030CBF84
:1020780001230023B3421DD1B4F1FF3FF3D02CB1AB
:10208800FEF7F2FCA0EB0800A042ECD92A68D3685E
:1020980023F4D073D3602A68536923F00103536192
:1020A800202385F8393085F83A30002385F8383010
:1020B800032000E00020BDE8F08158B310B50446C5
:1020C80090F839300BB3242384F839302268D36868
:1020D80023F40053D3602046FFF7B2FE2268136949
:1020E80023F4904313612268536923F02A03536150
:1020F8002268D36843F40053D3600020E0632023B0
:1021080084F8393084F83A3010BD80F83830FEF75A
:1021180099FBD8E7012070472DE9F04383B01E46AC
:1021280090F83930DBB2202B56D104460D46904644
:10213800002956D0002A56D090F83830012B54D0B8
:10214800012380F838304FF00009C0F83C90212373
:1021580080F83930FEF788FC0746A4F82480A4F8F4
:10216800268084F8389010E000963B4600228021B3
:102178002046FFF771FF002839D12B882268C3F366
:10218800080353602369C3B90235E38C9BB2B3B12A
:10219800E38C013B9BB2E384A368B3F5805FE3D093
:1021A80000963B46002280212046FFF755FF00BBE2
:1021B8002A7823685A600135E7E70135E5E7009694
:1021C8003B46002240212046FFF746FF034690B9D0
:1021D800202284F8392000E00223184603B0BDE825
:1021E800F0830123F9E70123F7E70223F5E7032347
:1021F800F3E70323F1E70323EFE790F83A30DBB284
:10220800202B20D109B312B390F83830012B20D0FD
:1022180081628285C2850023C363222280F83A2026
:1022280080F838300168CA6842F48072CA60016870
:102238004A6942F001024A610168CA6842F0200214
:10224800CA60184670470220704701207047012075
:10225800704702207047704708B50168CB6823F0C3
:102268004003CB60202380F83930FFF7F4FF0020CB
:1022780008BD08B590F83A30DBB2222B45D1836807
:10228800B3F5805F0ED0036903BB03685A68836A9D
:10229800591C81621A70C38D013B9BB2C385F3B18F
:1022A800002033E0826A036943B903685B68C3F3BB
:1022B80008031380836A02338362ECE703685B6870
:1022C800DBB21380836A01338362E4E703685B68E7
:1022D800826A511C816203F07F031370DBE7026896
:1022E800D36823F02003D3600268D36823F4807393
:1022F800D3600268536923F001035361202380F8F7
:102308003A30FEF73DFB002000E0022008BD704790
:1023180010B5044602681368D168526913F00F00BB
:1023280005D113F0200F02D011F0200F56D100284C
:102338006AD012F0010202D111F4907F64D013F038
:10234800010F06D011F4807F03D0E06B40F001004C
:10235800E06313F0040F04D01AB1E06B40F0020000
:10236800E06313F0020F04D01AB1E06B40F00400F0
:10237800E06313F0080F07D011F0200F00D11AB155
:10238800E26B42F00802E263E26B002A48D013F0E5
:10239800200F02D011F0200F24D123685B6903F0CD
:1023A8004003E26B12F0080F00D13BB32046FFF761
:1023B80005FD23685A6912F0400F1BD05A6922F0B4
:1023C80040025A61636B8BB11A4A1A65606BFEF75B
:1023D800CFFB28B3606B036D984721E02046FFF7D9
:1023E80048FF1DE02046FFF744FFD6E72046FFF7E9
:1023F8008EFF15E02046FFF78AFF11E02046FFF721
:1024080086FF0023E3630BE013F0800F02D011F086
:10241800800F06D113F0400F02D011F0400F04D105
:1024280010BD2046FFF7D8FCFAE72046FFF714FF57
:10243800F6E700BF4124000808B5806B0023C38578
:10244800C384FFF764FF08BD836843F0010383601A
:1024580000207047836823F00103836000207047E1
:10246800890141F02001016100230133054A9342AB
:1024780005D8026912F0200FF7D100207047032019
:10248800704700BF400D0300102303610023013390
:10249800054A934205D8026912F0100FF7D10020BF
:1024A80070470320704700BF400D030003329208B5
:1024B800002393420CD210B400F58054246841F8EC
:1024C800044B01339342F7D308465DF8044B704739
:1024D800084670474269806910407047406900F0BB
:1024E8000100704710B400F58064D0F8003423F080
:1024F8000303C0F80034D0F8003401F0030213439A
:10250800C0F80034012905D0022907D000205DF861
:10251800044B70474BF680336360F7E741F2707302
:102528006360F3E700F58060406980B2704710B4DB
:1025380000EB411101F5A064D1F80035C3F38143E4
:102548003BB3022B25D0D1F8003543F08043C1F8C6
:102558000035D0F8103413F47F0F49D1D1F8003585
:1025680023F00043C1F80035D1F8003543F00043AB
:10257800C1F80035D1F8003523F40043C1F800351F
:1025880000230133B3F57A7F27D82268002AF8DBC5
:1025980023E0D1F8003543F08043C1F80035C36A21
:1025A80013F47F0F1DD1D1F8003523F00043C1F893
:1025B8000035D1F8003543F00043C1F80035D1F8B3
:1025C800003523F40043C1F8003500230133B3F587
:1025D8007A7F02D82268002AF8DB00205DF8044BD5
:1025E8007047D1F8003543F00043C1F80035F4E7EF
:1025F800D1F8003543F00043C1F80035EDE770B578
:1026080005460446FFF726FF10212846FFF728FF56
:102618002846FFF739FF00220AE004EB4211D1F8FF
:10262800003523F0802343F08043C1F800350132A0
:102638000F2AF2D90020034600E001300F2813D8F2
:1026480004EB401606F5A061D6F8002522F40042F6
:1026580042F04042C6F800250133B3F57A7FECD842
:102668000A68002AF8DBE8E74FF0FF33C5F81434AE
:102678006B612846FFF7E8FE002070BD08B50378B7
:10268800DBB20B2B00D008BDD0F87C33002BFAD07E
:102698009B699847F7E708B5D0F8C4330133C0F809
:1026A800C433FFF7EBFF08BD012380F823337047DD
:1026B800002380F823337047012380F82033002358
:1026C80080F8213380F822331846704738B504461D
:1026D800012380F82133002580F8205380F8235304
:1026E80000F03DF82179204600F006F8617920468F
:1026F80000F002F8284638BD0A2906D8E03100EB78
:1027080081014B68C3F30E034B600020704708B586
:10271800D0F8C002FFF7BFFF08BD08B5D0F8C00267
:10272800FFF7CAFF08BD08B5D0F8C002FFF7CEFF13
:1027380008BD704708B5D0F8C002FFF7B5FF08BD5F
:1027480008B5D0F8C002FFF7B3FF08BD18B10228DA
:1027580003D002207047002070470120704708B559
:10276800D0F8D003FEF735FFFFF7F0FF08BD0000F3
:10277800DFF834D0002103E00C4B5B5843500431A0
:102788000B480C4B42189A42F6D30B4A02E000233E
:1027980042F8043B094B9A42F9D3FEF70DF900F0D1
:1027A80011F8FDF7FFFF70470000022068280008B5
:1027B800000000207C0300207C030020180B002070
:1027C800FEE7000070B50D4E0D4CA41BA4100025AB
:1027D800A54209D10B4E0C4C00F020F8A41BA41004
:1027E8000025A54205D170BD56F82530984701351A
:1027F800EEE756F8253098470135F2E760280008DB
:10280800602800086028000864280008024403467D
:10281800934200D1704703F8011BF9E7F8B500BFF0
:10282800F8BC08BC9E467047F8B500BFF8BC08BCA9
:042838009E46704701
:10283C000000000000000000010203040607080964
:0C284C0000000000010203040D0A00005F
:08285800A0D9FF7F0100000080
:04286000AD010008BE
:0428640089010008DE
:102868002B49434349443A203C49434349443E00A9
:102878000000000000000000000000000000000050
:102888000000000000000000000000000000000040
:10289800000041495254454C00000000000000006F
:1028A8000000000000000000000000000000000020
:1028B8000000000000000000000000000000000010
:1028C800000000004353513A203C727373693E2C58
:1028D8003C6265723E00000000000000000000003D
:1028E80000000000000000000000000000000000E0
:1028F800000000000000000041542B4349434349B5
:10290800440D0A0000000000000000000000000064
:1029180000000000000000000000000000000000AF
:102928000000000000000000000041542B434F50FD
:102938004E0D0A000000000000000000000000002A
:10294800000000000000000000000000000000007F
:1029580000000000000000000000000041542B436C
:1029680053510D0A000000000000000000000000A4
:10297800000000000000000000000000000000004F
:10298800000000000000000000000000000000003F
:1029980041542B494D53490000000000000000003D
:1029A800000000000000000000000000000000001F
:1029B800000000000000000000000000000000000F
:1029C80000000000000000000000000000000000FF
:1029D80000000000000000000000000000000000EF
:1029E800000000000000000000000000C800000017
:1029F80041542B4349434349440000000000000070
:102A080000000000000000000000000000000000BE
:102A180000000000000000000000000000000000AE
:102A2800000000000000000000000000000000009E
:102A3800000000000000000000000000000000008E
:102A4800000000000000000000000000C8000000B6
:102A580041542B434943434944000000000000000F
:102A6800000000000000000000000000000000005E
:102A7800000000000000000000000000000000004E
:102A8800000000000000000000000000000000003E
:102A9800000000000000000000000000000000002E
:102AA800000000000000000000000000C800000056
:102AB80041542B43494343494400000000000000AF
:102AC80000000000000000000000000000000000FE
:102AD80000000000000000000000000000000000EE
:102AE80000000000000000000000000000000000DE
:102AF80000000000000000000000000000000000CE
:102B0800000000000000000000000000C8000000F5
:102B180041542B494D4549000000000000000000C9
:102B2800000000000000000000000000000000009D
:102B3800000000000000000000000000000000008D
:102B4800000000000000000000000000000000007D
:102B5800000000000000000000000000000000006D
:102B6800000000000000000000000000C800000095
:102B780041542B43494343494400000000000000EE
:102B8800000000000000000000000000000000003D
:102B9800000000000000000000000000000000002D
:102BA800000000000000000000000000000000001D
:102BB800000000000000000000000000000000000D
:102BC800000000000000000000000000C800000035
:0C2BD8000024F4000100000010000000C8
:04000005080027794F
:00000001FF
